:020000041000EA
:1000000000B5324B212058609868022188439860DF
:10001000D860186158612E4B002199600221596106
:100020000121F02299502B49196001219960352056
:1000300000F044F80222904214D00621196600F024
:1000400034F8196E01211966002018661A6600F04E
:100050002CF8196E196E196E052000F02FF8012189
:100060000842F9D1002199601B49196000215960AB
:100070001A491B48016001219960EB211966A021F2
:10008000196600F012F800219960164914480160C1
:100090000121996001BC002800D000471248134993
:1000A000086003C880F30888084703B5996A0420EC
:1000B0000142FBD001200142F8D103BD02B5186610
:1000C0001866FFF7F2FF186E186E02BD00000240BE
:1000D000000000180000070000035F00212200005C
:1000E000F4000018222000A00001001008ED00E03C
:1000F00000000000000000000000000074B24E7A12
:1001000000200420F7010010C3010010C5010010F9
:10011000C1010010C1010010C1010010C101001097
:10012000C1010010C1010010C1010010C701001081
:10013000C1010010C1010010C9010010CB01001065
:10014000CD010010CD010010CD010010CD01001037
:10015000CD010010CD010010CD010010CD01001027
:10016000CD010010CD010010CD010010CD01001017
:10017000CD010010CD010010CD010010CD01001007
:10018000CD010010CD010010CD010010CD010010F7
:10019000CD010010CD010010CD010010CD010010E7
:1001A000CD010010CD010010CD010010CD010010D7
:1001B000CD010010CD010010CD010010CD010010C7
:1001C00000BE00BE00BE00BE00BE00BE00F04BF888
:1001D000103800BEF2EB8871CC6C0010F46C00108B
:1001E0003402001090A31AE700202149086006C8D5
:1001F00081F3088810471F48006800282FD10DA4FC
:100200000ECC002902D000F012F8F9E71A491B4A77
:10021000002000E001C19142FCD1194988471949E9
:1002200088471949884700BEFDE701C901C29A42C3
:10023000FBD37047F46C0010C0000020140B0020AA
:1002400048770010000004200000042048770010C8
:1002500000100420001004200000000070470B482C
:1002600003F09CF90047EFF30580C0B2704700002F
:1002700008ED00E0000000D0180B0020240F002043
:10028000CD1B0010C5040010891B0010575600003C
:1002900006005250ABB36053286C00100600525059
:1002A000861C0302386C0010060052505422A29D96
:1002B000486C001005005250DE65F4684877001065
:1002C000F8B5C0460448054B10B5834203D0044B33
:1002D000002B00D0984710BD140B0020140B0020F9
:1002E0000000000006480749091A8B10C90FC918F9
:1002F00010B5491003D0044B002B00D0984710BD17
:10030000140B0020140B00200000000010B5074C57
:100310002378002B09D1FFF7D5FF054B002B02D026
:10032000044800E000BF0123237010BD180C00201A
:1003300000000000A85C0010054B10B5002B03D096
:100340000449054800E000BFFFF7CCFF10BDC046E0
:10035000000000001C0C0020A85C0010F0B5DE4678
:1003600057464E464546E0B583B00023019370E002
:100370004346322B62D0404604F01CF84A4903F051
:10038000CCFF04F039F80022484B03F0CEFB03F019
:1003900055FC0202D20AD20212B210231A4312B240
:1003A00092B25B4699B26B46988800F05DF90123E2
:1003B0009C46E344584603F0FDFF041C3C4903F00F
:1003C000F3FF002842D03B49201C03F0BCFFFF2173
:1003D000890503F098FF81460026351C341C002354
:1003E00098464346312BC3DC391C301C03F0ABFF6D
:1003F0008121C90503F0D8FF0028B9D0211C201C99
:1004000003F086FF291C03F09EFF514603F080FF96
:10041000051C391C301C03F076FF494603F078FFB9
:10042000041C011C03F08FFF061C291C281C03F070
:100430008AFF071C01239C46E044D2E75B4699B241
:100440006B469888002200F00FF9B0E7019B01335A
:100450000193019803F0AEFF041C174903F0A4FFB9
:1004600000281AD01549201C03F06DFFFE218905D4
:1004700003F049FF8246019803F0C8FB4900A0221F
:1004800012060F4B4D08290003F092FB002801D003
:100490000023019300239B468CE703B03CBC9046AD
:1004A0009946A246AB46F0BD0000484200E06F40CE
:1004B000000020439A99993C0000A042CDCCCC3C4E
:1004C0009999893F10B504F029FA0A4B1B6898687E
:1004D00000230222002104F0ABFDFA20800000F08E
:1004E00087FF00F0A7F8FFF739FF034800F080FF0F
:1004F000002010BDB8020020204E000010B5034BB4
:100500001888002100F0D0F810BDC046F40100208A
:1005100010B5064C2088002100F0C6F8052000F038
:1005200067FF2088012100F0BFF810BD0002002005
:1005300010B582B06B46DC1DD871064B18880021BF
:1005400000F0B2F801222100034805F09DFB02B043
:1005500010BDC046F80100200000044070B5040042
:100560000D00054B1888012100F09EF82A0021009B
:10057000024805F089FB70BDF8010020000004402E
:10058000F8B5441C03780AE039002800FFF7E6FFBD
:10059000ED1912E000F02CFF250033002C005E1E48
:1005A000F6B2002B12D02078FFF7C2FFA51C6478AA
:1005B0007F231F0027402342E6D164B2002CECDAEF
:1005C0006C1C2878FF28E5D1F530E3E7F8BDF0B5DD
:1005D000C64600B582B00600884615001F002A20D6
:1005E000FFF7A6FF01AC0023237018366670A370D6
:1005F0001835E57004212000FFF7B0FF2B20FFF72E
:1006000097FF43466370E77004212000FFF7A6FFC1
:100610002C20FFF78DFF02B004BC9046F0BD000017
:1006200010B5034B1888012100F03EF810BDC046FC
:10063000F401002010B500F073F8FFF75FFFFFF73B
:1006400067FF0648FFF79CFF0548FFF799FF05483D
:10065000FFF796FFFFF7E4FF10BDC046A85C00104F
:10066000E45C0010F45C001070B582B004000D0072
:1006700016004F2801D89F2901D902B070BDFFF79D
:100680003DFFE0B2E9B24B1CDBB2421CD2B2FFF735
:100690009EFF330A6A4613715671022101A8FFF7C3
:1006A0005DFFFFF7BDFFE8E701238340002903D08A
:1006B000D022120653617047D02212069361FAE7E6
:1006C00070B504000D0000F0BBF8002D05D101232A
:1006D000A340D0221206936270BD0123A340D02212
:1006E00012065362F8E7000010B50A4B1888012182
:1006F000FFF7E6FF084B18880121FFF7E1FF074CE1
:1007000020880121FFF7DCFF20880121FFF7CCFFC3
:1007100010BDC04600020020F8010020F4010020B6
:1007200010B50A490A4800F0E1F80A4B186801219F
:1007300000F06EF8084B1868012100F069F8FFF727
:10074000D3FF064804F0ACF8002010BD001BB70032
:1007500000000440F0010020FC010020205D00109A
:10076000EFF3108072B6034B1B68002BFBD0BFF376
:100770005F8F70472C0100D0BFF35F8F024B0022C8
:100780001A6080F3108870472C0100D0F8B506007D
:100790000C001500FFF7E4FFE308F718F15C0722EF
:1007A0002240012393400B4205D1DBB20B433B7047
:1007B000FFF7E2FFF8BD2100280001F083FA0000F6
:1007C000034B1B6802201840431E9841C0B270477B
:1007D00000C0064000231F2B08D8054A9A18920033
:1007E000BFF35F8F002111600133F4E77047C0460B
:1007F00040000034054A1078431CDBB21370172BFD
:1008000002D9130010221A707047C046040200205B
:1008100010B58300084A944663441C684022624035
:10082000C02414408022520113431C60C000034BBB
:100830009C466044416010BD04C00140004001403E
:1008400010B501238340D0221206936293610521E3
:10085000FFF7DEFF10BDF0B5D646474680B583B042
:1008600082468846062001F047FB0700022400E08C
:100870002C00FE2C1DD801970026A51C28024246FC
:100880000023002103F022FD002904D1B142EFD161
:10089000019B9842ECD980256D00012D0CD96E1E6C
:1008A00021007143380002F0CDFE404504D83500E8
:1008B000F3E780256D00F0E753461C616B1E1B02B9
:1008C000524612685340FF2212021340802040011A
:1008D00052461043036029006143380002F0B2FE23
:1008E00003B00CBC90469A46F0BD000010B5040061
:1008F000144B984222D080229202134B1A60134B61
:100900001A60134B9B6810009843FAD12000FFF740
:10091000A2FF226807235340CF221A4080235B01A5
:1009200023431A602200243280239B011A430321AF
:10093000116004341C430223236010BD8022520244
:10094000DBE7C04600C0034000E0004000F000408C
:1009500000C0004070B504000D00062001F0CCFA84
:10096000C000290002F06EFEC60908D00E4B9E4260
:1009700017D87F23184001303500460800E00125D4
:100980006562A6622C34802080010443002323602A
:10099000062001F0B1FA8000A901891902F052FE87
:1009A00070BD0026014DEBE7FEFF0000FFFF0000D9
:1009B000002909D00A22064B9C4660444342584114
:1009C0004000044BC252704780225200F3E7C046F9
:1009D0000080FCBF1C0D002070B505000C00062037
:1009E00001F08AFA002829D0164B9D4227D0802298
:1009F000D203154B1A60154B1A60154B9B681100FA
:100A00009943FAD100212800FFF7D2FF21002800E6
:100A1000FFF7A0FF2C002C34E96A60224A406E21C7
:100A2000114080225201224311600A4B2B63802324
:100A30009B01234310221A600323AB6470BD802204
:100A40001204D6E70080034000E0004000F00040C0
:100A500000C000400103000070B505000C00080054
:100A600000F016FD200000F01DFE0849200000F0F7
:100A70005DFDFFF7BFFE064B9C466044800068604A
:100A80002C75A400034BE55070BDC0469D0D0010B1
:100A900040000034EC0C00200A4B1A68EFF3108180
:100AA00072B61368002BFCD0BFF35F8F054B1B6839
:100AB000BFF35F8F00221A6081F3108840BF0020CF
:100AC00000217047000D002010B5002922D00368D6
:100AD0001B7B99421ED8174B9C46614409018368D1
:100AE0009C4661440C684968002A19D003681B7B46
:100AF0009A4215D883680F488446624412019A18B6
:100B000010685368020001208B4201D80ED00020EB
:100B1000C0B210BD084B094A3B21094801F038F822
:100B2000054B064A3B21064801F032F8A242EFD8B5
:100B3000EDE7C046FFFFFF0F9C5D001070600010E6
:100B40004C5D001010B500291ED0037B99421BD8C4
:100B50004B005B18033B0468A4466344002919D08A
:100B6000002A1DD0914221D0002A25D0047BA24228
:100B700022D8046850008018033820188170197832
:100B800000291FD11A7010BD104B114A692111485C
:100B900000F0FEFF104B114A70310E4800F0F8FFD4
:100BA0000F4B0E4A71210B4800F0F2FF0D4B0B4A20
:100BB0007221084800F0ECFF044B054A6921054802
:100BC00000F0E6FF41701A70DDE7C046D05D00100E
:100BD00030600010EC5D0010505E00103C600010B2
:100BE0005C5E0010685E001070B506000D00140019
:100BF000002914D0002A14D0806873689847002810
:100C000006D0220029003000FFF79CFF280007E0F3
:100C10002A0021003000FFF795FF200000E01000BF
:100C200070BD0800FCE70000F0B583B0050000923D
:100C300001930AAB1C780BAB1F78002C26D00368FD
:100C40005A7B944207D10123002B19D1002C3BD1B0
:100C5000200003B0F0BD002C0CD01A7B944209D8C0
:100C60001A6863001B19033BD3189B78002BEBD049
:100C70000123E9E73E4B3F4A69213F4800F088FFE6
:100C80003E4B3F4A65213F4800F082FF03689C7B52
:100C9000002CDBD012D01A7B94420FD862001219BC
:100CA000033A19688C46624451789973002900D13F
:100CB000D9730023937053701370C7E72C4B2D4AE0
:100CC00069212D4800F064FF002C3AD02B681B7B73
:100CD0009C4236D82C4BE3181B01AA689446634407
:100CE000009A1A60019A5A60089A9A60099ADA6022
:100CF0002E68002C2BD030D0337B9C422DD8630043
:100D00001B19033B32689446634400229A705A7060
:100D10001A70717B22003000FFF766FF7073844207
:100D200000D095E7287D009A019B00F047FC061E45
:100D300001D0002F17D00C9B002B00D188E71E702C
:100D400086E7124B124A3B210E4800F021FF114B5F
:100D5000114AA621084800F01BFF054B054A6921EE
:100D6000054800F015FF2868210000F073FEE2E757
:100D7000D05D001030600010EC5D0010805E00104F
:100D8000A86000104C5D0010FFFFFF0F9C5D00107D
:100D900070600010485D001050600010F0B5DE4635
:100DA00057464E464546E0B58BB009900023089360
:100DB0008200B34BD658370052E0B24BB24A3F21C3
:100DC000B24800F0E5FEB24BB24A3B21B24800F017
:100DD000DFFE002901D1002869D10021404600F042
:100DE0002FFEA04219D12A686B6806920793AB6860
:100DF0009846EB689A464346002B14D0002C18D036
:100E00003B681B7B9C4214D8631EFA68D35C089332
:100E10001B0218433861002015E0A04BA04A8C212A
:100E20009D4800F0B5FE9F4B9D4A90219A4800F0E6
:100E3000AFFE974B9C4A4021974800F0A9FE002343
:100E40009A46984600207B68BFF35F8F00221A60A5
:100E500086F310884346002B32D1002800D107E1E9
:100E600000F022FB02000B1EA7DB002000210690F1
:100E700007917868EFF3108672B601680029FCD0FC
:100E8000BFF35F8F396888464C7B002CD7D09AD04F
:100E9000097B8C4297D8854965182D01B9688C4625
:100EA000654428686968801A9941002991DD2A689B
:100EB0006B68099800F082FB00239A469846C2E7C7
:100EC000089B1B022343994651461800C047050062
:100ED0000E007A68EFF3108B72B6136859424B41DB
:100EE000D9B2002BF9D1BFF35F8F002E26DB002E85
:100EF00052DD3B69002B53D04B4572D100F0D4FA40
:100F000002000B1E73DB0100180052197341984256
:100F100002D804D1914202D901225242D317002BA8
:100F20006BDB002104910131039102945146019140
:100F3000414600913800FFF777FE49E03B69002BFE
:100F4000D5D04B451CD1069A079B10001900521BA7
:100F5000B341994202D804D1904202D901225242AF
:100F6000D317002B12DB002104910131039102946D
:100F700051460191414600913800FFF755FE27E0A8
:100F80004B4B474A9F21444800F002FE3D4B3E4AEE
:100F90003F213E4800F0FCFD002E01D1002DA8D1DC
:100FA0003A68002C45D0537B9C422CD1012100296A
:100FB0003FD1D37B002B42D1D473002C52D03B685D
:100FC0001B7B9C424ED8FA68013C135D01331355DC
:100FD00000233B617A68BFF35F8F13608BF3108847
:100FE0003EE7334B2E4AA2212B4800F0D1FD254B82
:100FF000254A3F21254800F0CBFD224B224A3F21C4
:10100000224800F0C5FD002C0DD0137B9C420AD86D
:1010100063001B19033B1068844663449B78002BD4
:10102000C5D00121C3E7234B234A6921234800F09F
:10103000AFFD234B234AF721204800F0A9FD002BE8
:101040000AD0117B8B4207D85900CB18033B11689B
:101050008C4663445C70AFE7164B174A692117480A
:1010600000F096FD0A4B104A40210B4800F090FD1D
:101070000BB03CBC90469946A246AB46F0BDC0467C
:10108000EC0C0020A85E001018600010C45E001078
:101090009C5D0010706000104C5D0010205F00101F
:1010A000C0600010385F00107C600010FFFFFF0F71
:1010B000445F0010D05D001030600010EC5D001047
:1010C000805F00106060001010B50A4B5B68002B59
:1010D00004D00A21084800F005FB10BD054C230090
:1010E000064A1021206800F0CBFB03212000FFF707
:1010F000B3FCEEE708020020000D0020C90A001032
:1011000010B5064B5B68002B01D0044810BD044BA2
:10111000044A5C21044800F03BFDC0460802002060
:10112000A45F0010906000104C5D0010F0B5DE462A
:1011300057464E464546E0B58BB0804616001F0028
:10114000149B9A46159B994616AB1B789B461F230A
:1011500002AA9446634400221A7032E0002809D0A3
:1011600042461268127B904204D8421E4146C9682A
:101170008A5C48E0434B444A4021444800F008FD63
:101180000798002B75D05B46002B72D04946D0479C
:1011900004000D0003000B4300D171E0002946DB81
:1011A00000F082F906000F1E55DB36196F41B94277
:1011B00002D804D1B04202D901267642F717002F97
:1011C0004FDB43465A68EFF3108472B613685942F6
:1011D0004B41D9B20791002BF8D1BFF35F8F1F337A
:1011E00002AA9446634404930023039302934B465C
:1011F00001935346009332003B004046FFF714FD35
:10120000031EABD1020041464968BFF35F8F002542
:101210000D6084F31088002B29D01F2302A98C466F
:1012200063441B78002BABD112021043A9E73200B4
:101230003B00361BAF41BB4202D804D1B24202D9B7
:1012400001267642F717002FBBDA114B114A3F21D6
:10125000114800F09DFC0E4B0E4A3F210E4800F055
:1012600097FC0B4B0B4A3F210B4800F091FC0120EF
:1012700040420BB03CBC90469946A246AB46F0BDFE
:101280000798F6E79C5D00107C6000104C5D001034
:10129000A85E001018600010C45E0010F0B587B0A2
:1012A00006000F00FEF7DFFF00281FD1062464426E
:1012B000E517A4197D41BD4202D803D1B44201D93A
:1012C00000240025002D14DB0494059500F0ECF8B3
:1012D00002000B1E13DBA41A9D41002D17DC14D055
:1012E0003000390000F0ECF807B0F0BD234800F002
:1012F000E9FC234B234A3F21234800F049FC204BC3
:10130000204A3F21204800F043FC002CE8D0FFF7A2
:10131000F7FE0023029301931C4B0093049A059B54
:10132000FFF704FF002818DADAE7002300E00023C3
:10133000002BD5D1164B1A68EFF3108172B61368E3
:10134000002BFCD0BFF35F8F114B1B68BFF35F8F87
:1013500000221A6081F3108820BF0499059A0D4B72
:101360005B6A9A42E3D80B48806A884203D29A4269
:10137000DBD00123DCE70123DAE7C046C85F0010B9
:10138000A85E001018600010C45E0010990A0010DA
:10139000000D002000400540F8B504000D0000F0ED
:1013A00083F802000B1E10DB200029008018594131
:1013B0008B4202D804D1824202D901204042C11797
:1013C000002908DBFFF76AFFF8BD064B064A3F21FC
:1013D000064800F0DDFB034B034A3F21034800F0C1
:1013E000D7FBC046A85E001018600010C45E001055
:1013F00010B5FA2292000023002102F067FFFFF7E8
:10140000CBFF10BD70B5EFF305833F2018401038B7
:10141000EFF3108472B6194B1B68002BFBD0BFF39F
:101420005F8F012319008140154A5163154A1278D4
:101430001500C5402B4214D0114B5D6A8300124E3B
:101440009B599D4206D38300104D5B598A430D4939
:101450000A7007E00A4A031D9B009958995000231F
:1014600000E00023BFF35F8F044A0021116084F382
:101470001088002B00D0984770BDC046280100D0CE
:10148000004005401A0D0020040D0020680C0020CB
:1014900010B50100024A0348FFF778F910BDC046B5
:1014A000E8600010180D0020044B5B6A034A906A44
:1014B0001900536A9942F9D17047C046004005406F
:1014C000074B5B6A8B4204D2054B5B6AFAE7044B1D
:1014D0005B6A8B4203D1024B9B6A8342F7D370470E
:1014E0000040054070B504000D00FFF7DDFF02006D
:1014F0000B0020002900801859418B4202D804D1EA
:10150000824202D901204042C117002902DBFFF7C5
:10151000D7FF70BD024B034A3F21034800F038FB60
:10152000A85E001088610010C45E001070B5040051
:101530000D00EFF3108672B61B4B1B68002BFBD01F
:10154000BFF35F8F002D1CD0200000F04DFD174B26
:1015500083420BD01900200000F04EFD0121200035
:1015600000F03AFD0123A340114A1360A400114B7F
:10157000E550BFF35F8F0C4B00221A6086F3108892
:1015800070BDA2000B4B0021D1500122A2400A499C
:101590000B7893430B700549200000F057FD0021A4
:1015A000200000F019FDE4E7280100D00514001028
:1015B00038600540680C00201A0D0020F0B5DE46AA
:1015C00000B584B00400150001921E000293FFF7DD
:1015D0006BFF03958E4202D84ED185424CD9EFF372
:1015E000108B72B6274B1B68002BFBD0BFF35F8FAD
:1015F000254A17780125A540EBB23B431370234BD6
:101600005D63221D92000199D150A20020490298E9
:1016100050501B6A2B4212D11C4B1B6C2B4208D022
:101620000020BFF35F8F174B00221A608BF31088E6
:1016300023E0184B184AC121184800F0A9FAFFF717
:1016400033FF8E4214D802D1039B834210D80E4B35
:101650001B78BB420ED00D4B1D625D631F20044002
:101660000123A3400E4A1360074B1F701E38D8E7B2
:101670000020D6E70120D4E7012004B004BC934643
:10168000F0BDC046280100D01A0D002000400540E2
:10169000040D00200C610010A061001030610010EA
:1016A00080E200E010B5EFF3108472B60A4B1B68BD
:1016B000002BFBD0BFF35F8F01238340074A1362E7
:1016C00007490A789A430A70BFF35F8F024B0022E2
:1016D0001A6084F3108810BD280100D00040054036
:1016E0001A0D0020024B9C4661448900016070473E
:1016F0004000003410B50400FFF77CF80100200022
:10170000FFF7F0FFFF232371BFF35F8F10BD10B50C
:101710000400FFF76FF801002000FFF7E3FFFF234D
:10172000237100236371BFF35F8F10BD10B50029D3
:101730001ED0037B99421BD84B005B18033B046807
:10174000A4466344002919D0002A1DD0914221D01B
:10175000002A25D0047BA24222D8046850008018B9
:10176000033820188170197800291FD11A7010BD14
:10177000104B114A6921114800F00AFA104B114A26
:1017800070310E4800F004FA0F4B0E4A71210B48DD
:1017900000F0FEF90D4B0B4A7221084800F0F8F9F1
:1017A000044B054A6921054800F0F2F941701A70AE
:1017B000DDE7C046D05D001038630010EC5D00101E
:1017C000505E0010446300105C5E0010685E001004
:1017D00070B506000D001400002914D0002A14D0A2
:1017E000806873689847002806D0220029003000DE
:1017F000FFF79CFF280007E02A0021003000FFF7D8
:1018000095FF200000E0100070BD0800FCE700001C
:1018100010B50023437301338373037BC373012328
:10182000027B9A4214D9002B0CD0027B934209D838
:101830005A00D218033A01688C4662440133DBB285
:101840005370EDE70B4B0C4A69210C4800F0A0F9EE
:10185000002A09D0924207D8016853009A18033A27
:101860008A180023537010BD024B034A69210348B4
:1018700000F08EF9D05D001038630010EC5D0010B0
:1018800010B5017342608360FFF7C2FF10BD000016
:1018900070B50400081E00D170BD002934D0237B30
:1018A000994231D84B005B18033B2268944663444D
:1018B0005A78002AF0D02DD0237B9A422AD85300A0
:1018C0009B18033B21688C4663445D780021597066
:1018D000002825D0237B984222D843001B18033BC5
:1018E00021688C4663440021597001002000FFF7F5
:1018F0006FFF060029002000FFF7CAFF0200310039
:101900002000FFF765FFC7E7084B094A692109482E
:1019100000F03EF9054B064A6921064800F038F907
:10192000024B034A6921034800F032F9D05D0010F0
:1019300038630010EC5D001070B505000C00160057
:10194000002928D02DD0037B99422AD84B005B1860
:10195000033B0268944663445A78002A27D19A7858
:10196000002A2AD11978FFF793FF0300002E03D035
:10197000EA7B002A27D1EC73002B37D1002C49D009
:101980002B7B9C4246D82B6861000C19033C1C1928
:101990000023637070BD224B224A3821224800F098
:1019A000F7F8224B224A6921224800F0F1F8224B35
:1019B0001C4A3A211C4800F0EBF8204B194A3B2105
:1019C000194800F0E5F8002A0AD0297B8A4207D896
:1019D00051008A18033A29688C4662445470CAE759
:1019E000124B134A6921134800F0D2F8002B0BD098
:1019F0002A7B934208D843001B18033B2A6894466D
:101A0000634400229A70B9E7084B094A69210948E2
:101A100000F0BEF8054B064A6921064800F0B8F808
:101A20006C6200105863001074620010D05D0010EA
:101A300038630010EC5D0010C4620010EC6200100E
:101A400070B504000A00457B2900FFF775FF60733D
:101A5000280070BD70B50400002966D0437B8B421E
:101A60000ED0002911D0037B99420ED84B005B1891
:101A7000033B0268D0188378002B0CD1002055E07E
:101A80000121FFF7DDFF012050E0294B294A6921A0
:101A9000294800F07DF8002B1FD0227B93421CD8F0
:101AA00025685A00D318033BEA18EB5C8B421AD026
:101AB000002B1BD0227B934218D85A00D318033B2B
:101AC0002268D21853788B4216D0002BF0D11B4BD2
:101AD0001B4A67211B4800F05BF8154B154A69212A
:101AE000154800F055F84378137007E0104B114A81
:101AF0006921114800F04CF843785370002383703B
:101B0000437001222000FFF717FF0200617B814232
:101B100005D02000FFF75CFE6073012006E00A4B51
:101B2000074A6D21074800F033F8002070BDC04619
:101B3000D05D001038630010EC5D001010630010E1
:101B40006C630010746200101863001000BEFDE7A3
:101B500003000A4A1268002A08D0084A1068C3180D
:101B6000074A9A4206D3054A13607047034A05495B
:101B70001160F2E701204042F7E7C046E80C002080
:101B800000000420240F002010B5FFF7DFFF000045
:101B900010B582B00C001900002A0CD0084B002AA6
:101BA0000BD00192009323000200064802F0AAFE27
:101BB0000120FFF7CBFF044BF1E7034AF1E7C046F2
:101BC0008463001094630010345D001070B52B4BDB
:101BD0002B4A1A602B4B2C4A1A602C4B9A682A4BC2
:101BE0009343FAD12A4C2B4B9C4202D208CC984703
:101BF000F9E700F001F9234B274A1A60234B9B6851
:101C0000DB43DB01FAD1254B40229A675A671A67FA
:101C1000DA66234C09E0234B234A83212348FFF74C
:101C2000B7FF2000FFF766FD0834214B9C4209D224
:101C30002368002BF5D0012BEDD12000FFF767FDC5
:101C40000834F2E71B4CA1681B4DC022280002F0AB
:101C5000ADFCA560FEF707FB002800D000BEFEF734
:101C6000B9FD00F041FBFFF72FFA144C144B9C42D6
:101C700002D208CC9847F9E770BDC04600E00040AA
:101C8000BFCDFBFE00F00040FE7F3C0000C00040E6
:101C9000000B0020100B0020FFFFFF0100F00140AF
:101CA000F80A0020C463001050640010E4630010C0
:101CB000000B002000ED00E000000020100B0020D1
:101CC000140B00200FB400B583B0084802F0E8FD03
:101CD000049B002B07D005A90191180002F0F0FD2C
:101CE000034802F0DDFD0120FFF730FF3C640010E7
:101CF0004C640010F8B5DE4657464E464546E0B502
:101D000005000F0092461E000A9B9E424ED3330EE2
:101D1000994636020A9A00233000494601F0D4FC65
:101D200080466C006419A4002E4B9C466444636892
:101D3000834200D260602B1FDBB29B46012B3BD954
:101D4000C0239B012343802212011A60AB00264A64
:101D50009958002905D0506901F074FC0130013810
:101D6000FDD153465A0123685A40E0231A4080238C
:101D70005B0123431A605A46012A28D980239B011C
:101D80002343802212011A604346636042460023C7
:101D90003000494601F098FCAD00134B585101202A
:101DA0003CBC90469946A246AB46F8BD0F4B104A44
:101DB0002D211048FFF7ECFE012FC1D1C0239B015C
:101DC000234303221A60A368DB07FCD5C9E7216817
:101DD000794003220A401A60A3680122BA401A42DD
:101DE000FAD0CBE700800040780C0020606400103F
:101DF000D06400107464001030B583B00C2000F083
:101E00000DFBFEF7DDFC00280DD00023092B05D8C3
:101E100099002D4A2D4888500133F7E72A4B2C4A68
:101E20005A6203B030BD2B4B00229A6700F0FEFAD5
:101E3000294B01221A60274B5B6C012BFBD1274BEE
:101E400003221A60234B9B6B012BFBD102240094CD
:101E50000533234A0121234800F054FA0094052356
:101E6000214A0121214800F04DFA214B0093002224
:101E700002210420FFF73EFF1E4D00952B0000229B
:101E800001210520FFF736FF104C009423000022AB
:101E900000210720FFF72EFF0094230000220021DD
:101EA0000820FFF727FF0A4B0093230000220021A0
:101EB0000920FFF71FFF00952B00002200210620BC
:101EC000FFF718FFADE7C046780C0020006CDC027D
:101ED0001BB70000008000403CB0004030B0004024
:101EE000002F68590080024000389C1C00C002404E
:101EF000001BB700405973078000014BC058704762
:101F0000780C0020074B9B68103080001950BFF3FD
:101F10005F8FBFF35F8F044B0021196082F310883D
:101F20007047C04600ED00E0240100D010B5091A4A
:101F300004394808090B05D14005400D044B1843EE
:101F400080B210BD034B044A8B210448FFF720FEEA
:101F500000E0FFFFE0640010D4660010F0640010A1
:101F600010B5091A04394C08090B08D14905490D67
:101F7000064A11430180064B2343438010BD054BA5
:101F8000054A93210548FFF703FEC04600F0FFFF16
:101F900000F8FFFFE0640010E0660010F06400103D
:101FA00001238340034A10681840431E9841C0B281
:101FB0007047C04600E100E0002904D0034B1860E0
:101FC000034B18607047034B1860FBE780E200E0AA
:101FD00000E100E080E100E010B50123834018003B
:101FE000FFF7EAFF10BD0000024B9B681030800035
:101FF000C058704700ED00E070B504000D00EFF32D
:10200000108672B60C4B1B68002BFBD0BFF35F8FA2
:102010002000FFF7E9FF094B984201D0A84205D103
:10202000320029002000FFF76DFF70BD044B054A08
:102030006E210548FFF7ACFD240100D0CD01001052
:1020400044650010B8660010F0640010F0B5CE468C
:10205000474680B583B006000D00EFF3108872B6D6
:10206000574B1B68002BFBD0BFF35F8F554B9A6813
:1020700034001034A300D758534B9F4207D0AF42CF
:1020800000D19BE00197514BFB1A2F2B09D94246F7
:1020900039003000FFF736FF03B00CBC904699467C
:1020A000F0BD3000FFF77CFF814600213000FFF7D4
:1020B00093FFBFF35F8FFEF7D6F8002801D084426C
:1020C00019D10123019C9C43414923003F4A9B1A9B
:1020D0005B415943090D49B20022A368AB4212D0BB
:1020E0000622A256002A0DDB53009B189B002200FB
:1020F000364CE418F1E71E21364B374AFF3137489A
:10210000FFF746FD2200AB4251D106256557002D51
:1021100039DB6B005B199A002C4B9B189A68A26004
:10212000DA79E27106229A56A2719B795BB2002B92
:1021300010DABD200002A0806B005B199B00234ACF
:10214000D318274A11789971157049463000FFF766
:1021500043FF9CE7201D6B005B199B001B4A9B18EB
:102160001A1D9B88D90A1C2907D159054915023126
:1021700049005118FFF7DAFEDDE71A4B1A4A992198
:102180001648FFF705FD00280CD1002A08D0FF23D0
:102190009371164B9380124B1A78A2711970D4E781
:1021A000094FF8E7201D1249FFF7DAFECDE7A92114
:1021B000104B094A49000948FFF7EAFC024F66E75D
:1021C000240100D000ED00E0CD010010300200201D
:1021D000AAAA00005866001008670010F0640010FA
:1021E000190D002040660010F866001000BDFFFFCA
:1021F0006A0200207C660010F8B504000126064340
:102200002D4BF31A2F2B28D8FEF72DF800282BD0B2
:10221000EFF3108772B6294B1B68002BFBD0BFF37E
:102220005F8F274D22002449521A524155432D0DEC
:102230006DB2244B9B6880001B58B3421BD0002218
:10224000032A32D853009B189B001B49CB189B795B
:102250005BB2AB421FD00132F2E778211A4B1B4A26
:10226000FF311B48FFF794FCBD211A4B174A490068
:102270001748FFF78DFC134B9B68174A1A50174BF2
:102280001A78A2711D70BFF35F8F0C4B00221A6089
:1022900087F31088F8BD0800530099188900411889
:1022A000FF268E710E4A8A80E9E78C210D4B074A82
:1022B000FF310748FFF76CFC30020020240100D0FA
:1022C000AAAA000000ED00E0846600101C67001060
:1022D000F0640010AC660010CD010010190D002054
:1022E00000BDFFFF106300100022044B02E0044910
:1022F00002C30132072AFAD97047C04600E400E061
:1023000080808080F0B5CE4600B504000E00914676
:102310001F000C2001F096F9050043011B1A9901DA
:10232000C91AC90009188901484601F08BF9020051
:10233000103A98235B009A4233D87B1E062B36D87E
:10234000069B013B062B32D8069B9F4235D34B465A
:102350001A09AA4237D33F04069B1D032F43236863
:10236000002B36DB234B9C4241D080256D01224B54
:102370001D60224B1D60224A92682B009343FAD1C4
:102380002660A060221DC0239B01134321221A60F6
:102390002268002AFCDAE76008221A6004BC914631
:1023A000F0BD184B184A16211848FFF7F1FB184BDF
:1023B000154A19211548FFF7EBFB164B124A1F214E
:1023C0001248FFF7E5FB144B0F4A22210F48FFF795
:1023D000DFFB22683F231340B342C3D1A3681B0530
:1023E0001B0D8342BED1E368002FBBD1D6E7802509
:1023F000AD01BCE700C0024000E0004000F000403A
:1024000000C00040386700102868001054670010B2
:10241000A8670010F46700100C68001080239B0070
:102420000343014AD362704700800540064BAA224D
:1024300012011A602F22DA60044B054A1A60024B1F
:102440005B68002BFBDA70470040024000600240EE
:1024500000B0FA00704710B5002802D00B68496838
:10246000984710BD010000200A681378303BDBB2AA
:10247000092B08D883001B185B00501C08601078DB
:10248000C0183038F0E77047F0B5DE4657464E4684
:102490004546E0B583B093461F000C9B9A460D9CC1
:1024A0000E9B99460F9B9B0703D0B8460F00060072
:1024B00022E00192A34688464E46B9460700B44240
:1024C00007D2551C4B4641462020B84701342A000C
:1024D000F5E73D004F465C46019B9B46B1464646AC
:1024E000B84637002E0007E0013C551C5346185DE6
:1024F00043463900B0472A00002CF5D135003E0094
:1025000047460F9B9B0707D4100003B03CBC904686
:102510009946A246AB46F0BDB0464E46B9462F009E
:102520005D46531BB342EFD2541C4B46414620201C
:10253000B8472200F5E7F0B5CE46474680B585B0EE
:10254000944698460C9D0D9C0EAB1B789946109AAC
:10255000119B129EB7071BD4002B08D0F70706D596
:102560004F46002F02D10C37374200D0013B944236
:1025700008D21F2C06D830272F550134F7E7302713
:102580002F550134F70703D59C4201D21F2CF6D9F1
:10259000F70615D5770505D4002C03D0944224D036
:1025A0009C4222D00F9A102A2BD00F9A102A30D09A
:1025B0000F9A022A35D01F2C02D830222A55013416
:1025C0001F2C05D84A46002A31D02D222A55013425
:1025D000039602930194009543466246FFF754FF29
:1025E00005B00CBC90469946F0BD621E012C06D089
:1025F0000F9F102F01D01400D4E7023CD2E7140043
:10260000D0E7B206D1D41F2CCFD878222A55013476
:10261000D1E7B206CCD51F2CCAD858222A5501348E
:10262000C9E71F2CC7D860322A550134C3E77207A7
:1026300003D52B222A550134CAE73207C8D52022F8
:102640002A550134C4E7F0B5DE4657464E464546A6
:10265000E0B593B081468A46089209931CAB10CB33
:102660001B789B461E9D219B9846002C03D110236E
:1026700042469A4390468023DB0046461E4042462F
:102680001A4212D0002C22D000260EE03033D9B2EC
:10269000771C0AAB99552900200000F0D3FFAC420B
:1026A00016D31F2F14D83E0004002900200000F08C
:1026B000C9FFCBB2092BE9D94246920605D5412183
:1026C000C918C9B20A39C9B2E2E76121F8E727009F
:1026D00043460693209B05931F9B049303955B46FB
:1026E000029301970AAB0093099B089A514648460A
:1026F000FFF721FF13B03CBC90469946A246AB467B
:10270000F0BDF0B5DE4657464E464546E0B595B0BD
:10271000089009910A920B931E9E1F9C20AB1B7878
:102720009B46229B9946239D269B9A463300234332
:1027300003D1103352469A4392468023DB0057461A
:102740001F4052461A4219D0330023432DD0002790
:1027500014E03033DAB27B1C98460CABDA554A46AB
:102760002B003000210000F0AFFFA5421FD819D088
:1027700043461F2B1BD8474606000C004A462B0039
:102780003000210000F0A0FFD3B2092BE1D952465E
:10279000920605D54122D218D2B20A3AD2B2DAE76D
:1027A0006122F8E7B145E3D901E00023984653469A
:1027B0000693259B0593249B04934B4603935B460A
:1027C0000293434601930CAB00930B9B0A9A099921
:1027D0000898FFF7B0FE15B03CBC90469946A2465B
:1027E000AB46F0BDF0B5DE4657464E464546E0B531
:1027F00091B083468A460C9298461A9C08941B9D79
:10280000099522002B002000290001F0ECF9002896
:1028100000D0E5E001225242D34B2000290001F014
:10282000DDF9002800D0DBE001225242CF4B20002E
:10283000290001F0BDF9002800D0D1E000220023DA
:10284000089D2800099E310001F0B2F9002800D04F
:10285000DDE008980999069007918023DB001E9A15
:102860001A400D921E9A1A4201D106231C93069813
:10287000079904000D000A000600024300D1CDE0D4
:10288000080D4005400DBA4CA44660440A03120BE3
:10289000B84B13431F0001F0B9F9B74AB74B01F029
:1028A00044F9B74AB74B01F019F904000D000022B2
:1028B000B54B3000390001F008F9B44AB44B01F0CF
:1028C00034F902000B002000290001F007F901F0A3
:1028D000B5F9814601F09AF904000D00AD4AAE4BFE
:1028E00001F023F90022AD4B01F0F8F801F0A6F950
:1028F0000600AB4AAB4B2000290001F016F904009A
:102900000D00300001F082F9A74AA84B01F00DF943
:1029100002000B002000290001F0D7F804000D0090
:1029200002000B0001F001F90A900B91A04BF31883
:1029300000261F0522002B002000290001F0CEF800
:102940000E900F9122002B0000208021C90501F07C
:10295000BCF804000D000022964B0A980B9901F078
:10296000C6F80022944B01F0B9F802000B000A9857
:102970000B9901F0BCF80022904B01F0AFF8020077
:102980000B000A980B9901F0B2F802000B0020002E
:10299000290001F0A3F802000B000E980F9901F036
:1029A000A6F80022734B01F099F832003B0001F0C9
:1029B000BCF806000F0004000D00069A079B01F00A
:1029C0000DF900282CD001235B429C46E1440022F3
:1029D000794B3000390001F08AF804000D001FE047
:1029E0001E9B04931D9B03931C9B0293089A099BB7
:1029F0000092019343460C9A5146584600F0F8F86D
:102A000011B03CBC90469946A246AB46F0BD069537
:102A100080231B069C46664407961EE700239946C2
:102A20004B466333C62B1FD804261E9B1B0527D598
:102A30002B00234310D0624A624B0698079901F09D
:102A4000C5F8002800D183E000225F4B0698079963
:102A500001F0AEF800287BD01C9B4B4506DD4A46B2
:102A6000981A431E1C9303E00526DEE700231C93FF
:102A70008023DB001E9A1A431E92002600239946EB
:102A80001D9B9E426ED29F1B02231E9A1A400A92E1
:102A90001E9A134202D0002E00D000274B46002B76
:102AA00007D022002B000698079901F020F8069025
:102AB0000791002200230898099901F079F800286D
:102AC00000D085E0414B1E9A1340049303971C9B52
:102AD0000293069B079C0093019443460C9A51462F
:102AE000584600F085F8002E00D189E71E9B9B0612
:102AF0007AD54525441C4346020051462800D84754
:102B00004B46DA179B18534005220592013E049666
:102B1000002203920A3202924A46D00F019000939B
:102B20004346220051465846FFF78DFD0A9B002B75
:102B300000D165E702005F460C9E1D9D931BAB42D2
:102B400054D2541C434651462020B8472200F5E792
:102B50001C9B002B94D00D9B002B91D01C9B013B08
:102B60001C938DE700278FE7FFFFEF7FFFFFEFFF4D
:102B700001FCFFFF0000F03FFB799F501344D33F5F
:102B8000B3C8608B288AC63F0000F83F61436F637B
:102B9000A787D23F71A379094F930A400000E03F15
:102BA0001655B5BBB16B0240EF39FAFE422EE63F37
:102BB000FF03000000002C400000244000001840EB
:102BC0002D431CEBE2361A3F80842E41FFF7FFFFB6
:102BD000069C079D2200290080200006844661444F
:102BE0000B00069207936DE7652583E7100007E762
:102BF000F0B5DE4657464E464546E0B595B00690E0
:102C0000079193469946209F1E9A1F9B100019001A
:102C100000F0E9FF002831D101225242BF4B1E983B
:102C20001F9900F0C5FF002837D101225242BC4B4A
:102C30001E981F9900F0D2FF00283DD10022B94B09
:102C40001E981F9900F0CAFF002850D10022B64BF1
:102C50001E981F9900F0ACFF002848D100220023E5
:102C60001E981F9900F0A4FF002850D10023984619
:102C7000229B5B0500D4B6E0002458E0229B03931E
:102C8000219B029303230193A84B00934B465A4682
:102C900007990698FFF7F8FB0EE1229B0393219B0F
:102CA000029304230193A24B00934B465A46079983
:102CB0000698FFF7E9FBFFE00423229A1A402299C5
:102CC0000B4210D09B4B002A0FD004222299039173
:102CD00021990291019200934B465A460799069812
:102CE000FFF7D2FBE8E0944BEDE70322EEE7229BEF
:102CF0000493219B039302971E9B1F9C00930194B6
:102D00004B465A4607990698FFF76CFDD4E01E9A89
:102D10001F9B0020002100F0D8FE1E901F91012370
:102D20009846A5E70CAB30221A55013F01341F2C01
:102D300001D8092FF6D81E981F9900F07FFF0500D3
:102D400000F064FF02000B001E981F9900F0BDFE0A
:102D5000FA007A4B9B181A685B680A920B9300F092
:102D6000E4FE0890099100F08DFF060000F04AFF94
:102D700002000B000898099900F0A7FE089009913D
:102D800000226F4B00F02AFF00282ED001363000C1
:102D900000F038FF02000B000A980B9900F00EFFBC
:102DA000002801D001350026002F2CD1280000F08A
:102DB0002DFF02000B001E981F9900F086FE0600F2
:102DC0000F0000225E4B00F0F3FE002842D10022EB
:102DD0005B4B3000390000F001FF00283AD1EB07CF
:102DE00038D5013536E0062746E70022544B0898CF
:102DF000099900F0DDFE0028D6D1002E01D0F3079E
:102E0000D2D50136D0E7AA461F2C11D8013F0A219E
:102E1000300000F017FC651C30310CAB19550A214D
:102E2000300000F00FFC092E26D906002C00EBE73D
:102E3000554604E00CAA302111551F0001341F2C07
:102E400002D87B1E002FF5D11F2C03D80CAB2E22ED
:102E50001A5501341F2C14D80A21280000F0CAFB8F
:102E6000661C30310CAB19550A21280000F0C2FB5A
:102E7000051E05D03400EDE72B0055461C00DEE7AB
:102E800034000323229A1340012B1CD01F2C06D898
:102E90004346002B32D00CAB2D221A550134229B15
:102EA0000393219B029301940CAB00934B465A462B
:102EB00007990698FFF7E8FA15B03CBC904699468A
:102EC000A246AB46F0BD219B002B13D04346002BFE
:102ED00002D10C3313420FD0219B013B21931900E7
:102EE00003E00CAB30221A5501348C42CED21F2C99
:102EF000F7D9CBE72199F8E72199F6E7229B5B0701
:102F000004D50CAB2B221A550134C8E7229B1B07B2
:102F1000C5D50CAB20221A550134C0E7FFFFEFFFE7
:102F2000FFFFEF7F65CDCD4165CDCDC1406800107D
:102F3000446800103868001034680010306A0010CF
:102F40000000E03FF0B5DE4657464E464546E0B548
:102F500093B082468B4690461193002900D1ECE253
:102F600000275546119B1878002800D1E8E2252853
:102F700009D07C1C43463A005946A847119B0133AF
:102F800011932700EEE70133119300241DE00B009D
:102F9000303BDBB2092B37D92A293AD000230A93D8
:102FA000119B1A782E2A44D000239A46119A13783E
:102FB000683BD9B2122900D980E08B00CB49CB58AD
:102FC0009F4601231C4301321192119A11780B0084
:102FD000203BD8B21028DAD88300C548C3589F4692
:102FE00002231C4301321192EFE704231C430132F8
:102FF0001192EAE708231C4301321192E5E71023FE
:103000001C4301321192E0E711A8FFF72BFA0A9056
:10301000C6E71C9B1A1D1C921868002804DB0A9046
:10302000119B01331193BBE702231C4343420A93D4
:10303000F6E78022D20014435A1C11925A781300EA
:10304000303BDBB2092B04D92A2A07D000239A4649
:10305000ACE711A8FFF706FA8246A7E71C9B1A1DEA
:103060001C921868002804DB8246119B01331193DF
:103070009CE70020F8E780235B002343511C11915B
:1030800052786C2A01D01C0018E0C0239B001C431E
:103090000131119112E080232343511C1191527888
:1030A000682A01D01C0009E0C0231C4301311191A2
:1030B00004E080235B001C4301321192119B1878BD
:1030C0000300253BDAB2532A00D92CE29300894A47
:1030D000D3589F4680239B001C4301321192EDE799
:1030E00080235B001C4301321192E7E7782809D066
:1030F000582838D06F2838D0622838D010239C4305
:103100000A2600E01026582833D0692803D0642806
:1031100001D00C229443630501D501229443692810
:103120002AD0642828D0A30500D59FE0E30500D568
:10313000B8E0630600D4CAE01C9A111D1C91116806
:10314000FF220A4005940A9B049353460393029678
:1031500000230193009243463A0059462800FFF7A6
:1031600072FA070027E01026CDE70826CBE70226F3
:10317000C9E720221443C8E7A30520D4E30550D4AF
:10318000630666D51C9A111D1C911168FF220A4026
:10319000D317D118594005940A9B049353460393BF
:1031A0000296D20F0192009143463A0059462800F8
:1031B000FFF749FA0700119B01331193D2E61C9BDC
:1031C000DA1D07218A43110008311C9111685368E8
:1031D0009C46DB170C930D930C9A0D9B10004840F6
:1031E0000E90624653400F930E980F990C9A0D9BC8
:1031F000801A99410E900F9108940A9B07935346A9
:1032000006930496002305936346DA0F029200901A
:10321000019143463A0059462800FFF772FA070029
:10322000C9E71C9A111D1C911268D317D118594077
:1032300005940A9B0493534603930296D20F01927E
:10324000009143463A0059462800FFF7FCF9070071
:10325000B1E7230605D51C9A111D1C910023D25EEF
:1032600096E71C9A111D1C91126891E71C9BDA1DB0
:1032700007218A43110008311C9108940A9B079387
:1032800053460693049600230593029313685468EB
:103290000093019443463A0059462800FFF731FA5B
:1032A000070088E71C9A111D1C9105940A9B049342
:1032B00053460393029600230193136800934346F9
:1032C0003A0059462800FFF7BEF9070073E72306C6
:1032D00006D51C9A111D1C9112681204120C31E7BC
:1032E0001C9A111D1C9112682CE7C0464C680010F6
:1032F00098680010DC68001046281AD01C9B073321
:10330000072293431A0008321C9204940A9A0392EB
:10331000524602925C681B680093019443463A004F
:1033200059462800FFF764FC0700119B01331193F5
:1033300018E620231C43E1E7672801D0472802D183
:1033400080231B011C43452801D0472801D120239D
:103350001C431C9B0733072293431A0008321C921C
:1033600004940A9A0392524602925C681B68009386
:10337000019443463A0059462800FFF733FA070004
:10338000119B01331193EDE502231A00224092466E
:1033900023421FD001241C9B1A1D1C927A1C9146AB
:1033A000187843463A005946A8475346002B16D191
:1033B000119B013311934F46D4E5561C43465946A1
:1033C0002020B847230032005C1C9D42F5D83D0008
:1033D0001700E0E701233A002F000A9DF4E74A4670
:1033E000A9460A9D06E0571C434659462020C84777
:1033F00034003A00661CA542F5D84D469146D7E701
:103400001C9B1A1D1C921B6899465346002B00D129
:10341000013B4E4601E0013613003278002A02D00B
:103420005A1E002BF7D14B46F21A10928023DB0074
:1034300026001E401C4203D0524501D9534610932A
:1034400002231A0022400B92234205D03A00370093
:103450004C46A946554620E03A00109B5F46B346CD
:103460002E0006E0551C434639002020B0472300BB
:103470002A005C1C0A999942F4D835005E46BB4686
:10348000109437004C46A946554606E01D0001340D
:10349000561C43465946C84732002078002804D0BD
:1034A000002FF4D06B1E002DF0D117004D460B9B62
:1034B000002B03D1119B0133119353E50A9F109BFD
:1034C00006E0561C434659462020A84723003200F8
:1034D0005C1C9F42F5D81700ECE721231C431C9B82
:1034E0001A1D1C921B6800930594082304935346ED
:1034F0000393102302930023019343463A00594655
:103500002800FFF7A0F80700119B0133119329E56C
:103510007C1C43463A0059462520A847119B01339D
:10352000119327001EE57C1C43463A005946A847E4
:10353000119B01331193270014E50B4B9A460FE5BD
:10354000AA4647450DD343465A1E434659460020D6
:10355000D047380013B03CBC90469946A246AB46D3
:10356000F0BD3A00F1E7C0465524001000B585B023
:10357000029003910121009313004A4202A90248DC
:10358000FFF7E0FC05B000BD5724001001480421FE
:10359000014B184780020020BD35001010B5010016
:1035A00018231B8814221088984710BD10B50100FD
:1035B00018231B8816221088984710BDF0B5C64600
:1035C00000B507000E0000250123984600E00135F4
:1035D000B5420AD2AC003C192068FFF7DFFF20603B
:1035E0000028F4D100239846F1E7404604BC9046F9
:1035F000F0BD0000124A936F9B0815D29066D16609
:10360000002905D0FFE7FFE7FFE7516F106F704714
:1036100004B580210906C2175140002800D0C843D4
:1036200002F022FB002104BDF0B5146E556E576FF9
:10363000166FFFF7E3FF1466556657671667F0BD10
:10364000000000D0114A936F9B0813D21066516698
:10365000002905D0FFE7FFE7FFE7516F106F7047C4
:1036600004B5002801D00020C04302F0FDFA00217B
:1036700004BDC046F0B5146E556E576F166FFFF758
:10368000E5FF1466556657671667F0BD000000D069
:1036900094464E4A926F9208624601D230E0C0468C
:1036A000F0B54A4EB56F6D08FCD3346E756E776F0A
:1036B000366F00F025F89446444A146655665767FD
:1036C00016676246F0BDC0469446404A926F920823
:1036D000624601D258E0C046F0B53C4EB56F6D0869
:1036E000FCD3346E756E776F366F00F04DF89446EC
:1036F000364A14665566576716676246F0BDC0467F
:10370000002B24DB11D000293EDA00B5C94340422A
:1037100000D1013100F038F8C943404200D10131F5
:10372000DB43524200D1013300BD002AEBD1002817
:1037300001D1002905D00020C90FC90701D1C0431C
:10374000410800B502F088FA0022002300BD00B550
:1037500000290ADBDB43524200D1013300F014F8A8
:10376000C943404200D1013100BDC943404200D1AC
:103770000131DB43524200D1013300F005F8DB4355
:10378000524200D1013300BD002923D1002B18D1B2
:10379000002A0CD0BC460D4F38667A660021002303
:1037A000FFE7FFE7FFE77A6F386F6746704700284B
:1037B00001D00748010000B502F04EFA00220023B4
:1037C00000BD02000B00002000217047000000D067
:1037D000FFFFFFFF002B00D0BFE0130C28D1002A11
:1037E000E7D080B4114F39667A66FFE7FFE730B45F
:1037F000040C7B6F396F1B0423433B667A66FFE73B
:10380000FFE7FFE7C04684B27B6F3D6F1B04234395
:103810003B667A66FFE7FFE7C04600232C042D0CC9
:103820007A6F386F00196941B0BC7047000000D052
:10383000F0B594460025140E01D112020835140F7C
:1038400001D112010435940F01D192000235D40F39
:1038500001D152000135D40B0134254F7C66254C33
:103860003C660E0C93B2FFE7FFE7FFE73C6F664351
:10387000360C7703BE467343DF0B5B04C01AB941B5
:10388000130C7343DB18C91ACE086643360CB644D2
:1038900093B273431F0F1B01C01AB941130C73433A
:1038A0001F0B1B05C01AB941860D8F023E436643AC
:1038B000360C092D24DB520A7243801A7703460A1C
:1038C0006643360C16235B1BDE40DF40BF1964469F
:1038D0006643821B7046043506330100D940A84078
:1038E000C01900D30131A24206D20023F0BD00006E
:1038F000000000D0FFFFFFFF121B0130F3D3F1E700
:1039000009277F1BFE406446A2B27243801A00D290
:103910000139220C7243130C1204821A99410B00D4
:103920007046043513370100F940A840801900D3D0
:103930000131002B02D1A2420AD2F0BD013000D3E6
:103940000131121BFAD2013BF8D1A24200D2F0BDE4
:10395000013000D30131121BF7E7F0B51C0C00D089
:1039600080E00CB400251C0A04D11B02160E334360
:10397000120208351C0B04D11B01160F3343120130
:1039800004359C0B04D19B00960F33439200023503
:10399000DC0B02D192185B4101351C009718644181
:1039A0000134464F7C66464C3C660E0CFFE7FFE751
:1039B000FFE7C0463C6F6643360C7703BE4697B2BE
:1039C0007743C01B00D20139C01B00D201399FB21E
:1039D0007743C91BC91B170C77437E04FF0B801B61
:1039E000B941CE086643360C0C2D33DBB644120BBE
:1039F0001F053A431B0B97B27743C01B00D2013916
:103A00009FB27743C91B170C77433E043F0C801BC2
:103A1000B941860D8F023E43664329277F1BFE4036
:103A20000C3D7746AF40BF1930BCA2B2ABB2724377
:103A30007343801A9941220C7243130C1204801AAA
:103A4000994102000B000137001BA941F9D2781EF1
:103A50000021F0BD0C277F1BFE4077467F0BAF4057
:103A6000FF19E0E700245D1C07D0144F7D6639661E
:103A7000FFE7FFE7FFE7FFE73C6F95B29EB26543C4
:103A80006643401BB141150C1E0C6543664336046A
:103A90002F0C3E432D04401BB141994204D2020039
:103AA0000B0020000021F0BD01D19042F7D3801A15
:103AB000994101349942F2D3F6E70000000000D0AA
:103AC000FFFFFFFF48404140484018B41B4B5B6874
:103AD000FC46019308BD04DF9F3D001018B4174B4E
:103AE0001B68FC46019308BD00DFA93D0010944609
:103AF000134A926F920809D2624618B40F4BDB68E2
:103B0000FC46019308BD0CDF614000100C4AF0B583
:103B1000146E556E576F166F6246FFF7EEFF084A38
:103B20001466556657671667F0BD18B4034B9B685B
:103B3000FC46019308BD08DF053F0010200D002062
:103B4000000000D0FFB550404240504059404B402B
:103B5000594000E0FFB5154F4C00640D03D0BC4246
:103B600004D10C0314D80020090D09055C00640D74
:103B700003D0BC4204D11C030AD800221B0D1B0534
:103B800001264B4009D44B4003D58B4200D18242E1
:103B9000FFBD9942FCD19042FFBD0B43DB180343AC
:103BA0001343F5D0C9434918FFBD0000FF070000CB
:103BB00000B5FFF7CFFF804100BDC04600B5FFF75D
:103BC000C9FF01D9002000BD012000BD00B5FFF7ED
:103BD000B9FF01D9002000BD012000BD00B5FFF7ED
:103BE000B1FF804100BD012040054A00121804D8F1
:103BF0005A00121801D80020704701207047002099
:103C0000704700000021002805D17047C1174840C7
:103C1000401AFAD0C90713B5064B1B6898470CBC6D
:103C2000441CA2401005120B0349091B0905194346
:103C3000114310BDFC0C00201F04000010B54C0007
:103C4000620D8023D218DB00D21A5B057E2A10DDBC
:103C50009E3A13DACC170903490819435242D1405E
:103C6000640001341532202A05DAD040084360434D
:103C700010BD002010BD0846604310BDC80FC0181D
:103C8000013810BD18B4044B5B6AFC46019308BDB3
:103C900024DF114200100000200D002070B5132316
:103CA0001C78012C0CD0012C13DC022C02DC1F4AE6
:103CB0001F4B9A641F48FFF771FC1F4B186070BDC3
:103CC00000231F2BEFD899001848194A8850013358
:103CD000F7E71A48FFF76AFC05001948FFF766FC8A
:103CE000023803789B007F2B19DD802229001048C1
:103CF00000F05CFC022CD8D1124B1A88B5231B02B1
:103D00009A4209D1104B1A88104B9A4204D1104B99
:103D10001A88104B9A42C8D00020FDF7D3FF0E4BF3
:103D20000E4A32210E48FDF733FFC046653D0010B4
:103D3000200D00204C330000FC0C002053440000F8
:103D40005346000054380000D838000049460000AF
:103D50009C38000059460000806A0010406B00103B
:103D6000E06A001007B56046002800D100BE018857
:103D70000A0A0230DF2AFAD1C9B2820804D30288C3
:103D800040880004104300E00068024A505003904D
:103D900007BD0000200D00200FB403BC0CBCF0B523
:103DA0000124E407634000E0F0B50C0DCF0F661E60
:103DB0003605891B640503D3C943404200D3013152
:103DC000640D03D0661CF60A07D0E41B00207F00B8
:103DD000791C89078912803C24031D0DDF0F6E1E9C
:103DE00036059B1B6D0503D3DB43524200D30133E1
:103DF0006D0D03D06E1CF60A07D0ED1B00227F006C
:103E00007B1C9B079B12803D2D032F1B661B58D4E8
:103E1000A446202E46DA20371400BC401D00BD40C9
:103E2000F24033412A4380185941CB0F05D0C94392
:103E3000C043002264425041514162464D0D28D199
:103E40000D0D07D100281FD0241940414941013AE6
:103E50000D0DF9D0640006D3013000D30131002CE0
:103E600001D140084000013A0BD4941CE40A04D16B
:103E700012051144DB071944F0BDD907204B194343
:103E800000E0D9070020F0BD0029DDD1002CDBD1F6
:103E9000F0BD0132C6074008CD0728434908002E6F
:103EA000E1D0D9E73C2E29DA203E40371400BC404F
:103EB00000D00124F24014431A00BB401C43D31726
:103EC000ACE7AC46202F08DA20360400B4400D00E1
:103ED000B540F84039412843A5E73C2F0CDA203F94
:103EE00040360400B44000D00124F84004430800E8
:103EF000B1400C43C117EAE710001900002494E711
:103F00000000F07FF0B50C0D661E3605891BE60A31
:103F10006405640D02D0651CED0A04D00020012167
:103F20000905803C2403A4461C0D671E3F05DB1BCE
:103F3000E70A6405640D02D0651CED0A04D0002276
:103F400001231B05803C24037740644497B484B26A
:103F500096B27443070C7E43150C6F4380B26843DE
:103F6000361802D3012000043F183004350C001924
:103F70007D41844688B29AB250430C0C62431F0CB8
:103F80007C438EB27E43921902D301263604A419D3
:103F90001604170C3618674101BC81B29AB251431E
:103FA000040C62431B0C5C4380B25843121802D3CA
:103FB0000120000424181004130C401863412D182C
:103FC0005E410020474106BC88B293B258430C0CB6
:103FD0006343120C544389B251435B1802D301214D
:103FE0000904641819041A0C091862416D18564125
:103FF0000020474118BCF902720D1143F0026A0D0E
:104000001043ED020A0D03D16D1940414941013BB6
:10401000124E9B1B7600B3420ED26D0007D30130C7
:10402000002671416646354301D1400840001B051A
:10403000C918E4072144F0BD0BDA013306D1013081
:1040400004D101314F0D01D04908F2E7E10700200A
:10405000F0BD013631050020EBE70000FF03000052
:10406000F0B51C0D671E3F05DB1BE70A6405640DF8
:1040700002D0661CF60A04D0002201231B05803CF6
:104080002403D0252D060026F6432E661E096E66F3
:10409000CE0FF619B44649004F0D02D07E1CF60A29
:1040A00003D000200021403F3F033E1BB600B44434
:1040B000013F7F05C91B49082E6F013676089C0217
:1040C000950D25437543ED137543AD1301356D1003
:1040D000F603761B0CB4CC02450D2C43A2B2B3B24E
:1040E0005A43270C7B43350C6F43A4B26C431B1916
:1040F00002D3012424043F191C041D0CA4187D4183
:1041000024196D41009A91B2ACB26143170C7C4303
:104110002B0C5F4392B25A43A41802D3012212041B
:10412000BF182204230C52187B41019C6C431B19BD
:10413000520ED9010A434401A01A81B2B2B25143CE
:1041400003145A43360C734387B27743D617D219F8
:1041500000277E4136049B191704160C7F185E4118
:104160007316ED18F301002680337541A90F06D1AF
:104170006400690AE8055B0A184309D22FE00422AB
:10418000944480337541A90AA8059B0A184326D395
:10419000404149412404009A019B0D005543641B92
:1041A0004343E41A95B286B27543170C7E43030C61
:1041B0005F4392B25A43B61802D301221204BF18C9
:1041C0003204330C52197B4152429C41002C02D4E0
:1041D0000022013051414008CA071043490802B08B
:1041E0006246D7079210084BD218084B9A4203D266
:1041F00012058918C919F0BD0020002A01DC390018
:10420000F0BD01331905F5E7FD030000FE070000CE
:10421000002200B5203200F004F8080000BD0000C4
:1042200000220B150AD410B5944600F031F814148E
:10423000013400DA0021CB17144C20470020002164
:1042400070476244343A0CD40C2A07DA04009140D7
:10425000904052422032D440214310BDD843D9432C
:1042600010BD203207D40C469440524220321141F6
:10427000D040204310BD0800C917203203D4524259
:104280002032104110BD1800190010BD434200102B
:104290000A0DCC0F531E1B05C91A520503D3C9437F
:1042A000404200D30131520D03D0531CDB0A07D02A
:1042B000121B00206400611C89078912803A1203D6
:1042C000014BD21A70470000FF03000051434343E3
:1042D000C9188C46110C83B24B4310B4040C6143D3
:1042E00092B280B2504362431C041B0C001910BCF4
:1042F00059411304120CC018514161447047000029
:1043000048404140484000239C46114B5B68184799
:1043100000239C460E4B1B6818470E4A936F9B0860
:1043200004D200239C460A4BDB681847F0B5146E94
:10433000556E576F166FFFF7F4FF064A1466556601
:1043400057671667F0BD00239C46014B9B681847D2
:10435000200E0020000000D007B5484041404840F2
:1043600001E0C04607B54200120E03D0FF2A03D178
:10437000420218D8C00DC0054A00120E03D0FF2A11
:1043800003D14A020FD8C90DC9050122414005D405
:10439000414001D5814207BD884207BD014349180C
:1043A00001D0C043001807BD00B5FFF7DBFF804117
:1043B00000BDC046C10FC90700D54042002817D034
:1043C000F44603B40B4B1B68984706BC81409E38EB
:1043D0004042803107D20B0607D04900490AC00588
:1043E0001043084360470130F8E7490A8902F5E7BE
:1043F00070470000FC0C0020034BDB6FFC461847A5
:104400007CDF3D4500100000200E002070B5132316
:104410001D782A48FFF7CAF80400012D11D0012D9C
:1044200009DDA31E1B789B007F2B40DD802221002D
:10443000234800F0BBF82348FFF7B0F8224B186080
:1044400070BD542201001E4800F0B0F81F4B1A88BE
:104450001F4B9A421CD1A7239B011A881D4B9A42DD
:1044600016D11D4B1A881D4B9A4211D11C4B1A882C
:1044700094239B019A420BD11A4B1A881A4B9A42E9
:1044800006D11A4B1A681A4B9A4201D1152307E03C
:104490001848FDF717FC99001748094A885001335E
:1044A0001F2BF8D9144A064B1A62DA61B7E7134B8F
:1044B000134A42211348FDF76BFBC04653460000E8
:1044C000200E00204C330000FC0C0020EE290000E0
:1044D000C40F0000C20D0000962B0000C0B5000004
:1044E000182B0000CC2A000010B50000FC2C0000A6
:1044F00051ED8764345D001009450010546B0010C5
:10450000E86B0010886B001007B56046002800D1EA
:1045100000BE01880A0A0230DF2AFAD1C9B2820835
:1045200004D3028840880004104300E00068024A77
:104530005050039007BD0000200E0020C30FDB0782
:1045400041000A0E07D0FF2A08D00909054A891838
:104550001943400770471900002070470249C918E5
:10456000FAE70000000000380000F07F10B50400FA
:1045700000F06EFA002804D00419034B9C4200D8C6
:1045800010BD0248FDF79EFB00000420FC6B0010EC
:1045900001480421014B184790020020BD3500104E
:1045A000014B1B681847000090020020014B5B681C
:1045B000184700009002002010B503000800110009
:1045C0001B68984710BD0000F8B507000D001600E5
:1045D000437C002B02D0002400200CE00368110073
:1045E000280098472DE03B7C10E0022115483B68ED
:1045F0009847601C0134B44214DA002CF3DD2B1907
:10460000013B1B780D3B5A425341DBB22A5D0A2A1B
:10461000F0D1002BEED1A042E7DA211A28183B682E
:104620009847E2E7B04203DA311A28183B68984706
:10463000002E06DDAD19013D2B780D3B5A4253414A
:104640003B74F8BD846C001070B505000368002B46
:1046500016D00C4B1C6805E0290004C92000FFF7A8
:10466000B3FFE468002C09D02368002BF9D0064B77
:104670001B68002BF0D0A342F3D1EDE700232B60A1
:1046800070BDC046E00C0020E40C002070B50500B1
:104690000C000B68802B05D021684B1C236064182C
:1046A000257170BD0800FFF7CFFFF5E7F0B583B0C7
:1046B00007000E000092019328E0A368002B04D0AD
:1046C000310038009847002827DCE468002C06D029
:1046D000134B1D68002DF0D0A542F6D1EDE7012067
:1046E0000021FCF7FFFE0099019A0E4B5B6A9A428B
:1046F00009D80C48806A88420BD29A4201D0012323
:1047000002E0002300E00023002B04D1064B1C68CC
:10471000DCE70123F8E70120404203B0F0BDC046CA
:10472000E40C002000400540E00C002010B582B0F1
:10473000D0231B0600241C5701A9074801F09CFA4E
:10474000002806D1019B9C4203D0034801F0A4FA43
:10475000012002B010BDC046F80A002010B5024882
:1047600001F072FA10BDC046F80A0020F0B5CE463E
:10477000474680B583B006000D0090461C00FFF749
:10478000D5FF81466B1C05D0002C08D0194F1A4B61
:104790001C6807E0300000F0FDFC0500F4E7174F4F
:1047A000F5E7E468002C17D02368002BF9D0144BF0
:1047B0001B68002B01D0A342F3D12A003100200056
:1047C000B8474346002BECD06B46D91D0A230B702B
:1047D00001222000B847E4E74B46002B07D1681EB2
:1047E0008541E8B203B00CBC90469946F0BDFFF796
:1047F000B5FFF4E7B9450010E00C0020C9450010F2
:10480000E40C002010B5030008001100002B05D1B6
:10481000044B1A685B68FFF749FF10BD0120404256
:10482000FBE7C046E060001070B50D0014000128E1
:1048300007D10023002221002800FFF797FF200066
:1048400070BD01204042FBE70C4B1A681300002B9F
:104850000BD0834202D01A00DB68F8E7002903D1AD
:10486000DB68D3600023C36070470029FCD0002AB6
:1048700001D0D060F8E7014B1860F5E7E00C0020AC
:1048800010B5064B1C6800E0E468002C04D0636897
:10489000002BF9D09847F7E710BDC046E00C002088
:1048A00070B5050000F076FC040000230122010031
:1048B0002800FFF75BFFFFF7E3FF200070BD00005B
:1048C00070B5A2B004000E00FFF730FF050084228F
:1048D000002101A8FFF764FE3300220001A9084867
:1048E000FEF744FE040001A8FFF7AEFEFFF7C8FF85
:1048F000002D02D1200022B070BDFFF72FFFF9E795
:104900008D4600100FB400B583B004A901C9019110
:10491000FFF7D6FF03B008BC04B0184710B500F08D
:1049200083F810BDF0B583B000251AE06B4607335D
:104930000D241C70002403E01F781760013401333C
:10494000002C1CD19769BF06FCD4F5E71E781660D1
:1049500001340133002C03D19669B606FCD4F5E787
:1049600001358D4210DA094B1A68465D084BD318A1
:104970005C4263415B00074C1B5FB342D6D06B4681
:1049800007331E700024E5E703B0F0BD140D0020CE
:104990000080FCBF1C0D0020F0B583B00700002094
:1049A0000DE09369DB06FCD413682B7001340135EC
:1049B000002CF6D06B4607331B780370300088421A
:1049C0000CDA094B1A68936910252C001C401D4213
:1049D00004D1461C38186B46DD1DE9E7002801D0DC
:1049E00003B0F0BD0338FBE7140D002070B51500CF
:1049F0001C000B4B1860FBF7EFFF002D06DA002CB4
:104A000009DA01210748FFF71FFF70BD02212800C6
:104A1000FBF7FEFEF3E702212000FBF7F9FEF0E7CB
:104A2000140D0020A002002010B5064B1B78064B89
:104A30001B78E1210123002249020448FFF7D6FF39
:104A400010BDC046EC6C0010F06C0010004003403C
:104A500010B5034B0100186800F00EF810BDC046F9
:104A6000B802002010B5034B0100186800F000FEEA
:104A700010BDC046B8020020F0B557464546DE4698
:104A80004E46E0B50D000B3583B00700162D22D839
:104A9000102900D9BBE000F0B5FA10251823022038
:104AA000D14EF3181A005C68083A944200D1BEE077
:104AB000032362689A431300E268A168CA609160A8
:104AC0000122E318596838000A435A6000F09CFA42
:104AD000200008309EE007239D4300D597E0A942BF
:104AE00000D994E000F08EFAF823FF339D4200D8FD
:104AF000ADE1680A00D194E0042800D980E13823B0
:104B00009846A80980443930C100B74E7118083959
:104B1000CC68A14218D0032362689A431300521B49
:104B20000F2A00DD36E1002AC6DA03239C4608E09E
:104B30006246636893435A1B0F2A00DD2AE1002A6C
:104B4000BADAE468A142F3D13200346908329442FF
:104B500000D177E003236168994389460B00491B24
:104B60000F2900DD77E1726132610029A8DA9F4ADE
:104B7000914500D910E1DA08012391108B40D20051
:104B8000716892190B4391687360E260A160946050
:104B9000CC60012182109140994259D80B4205D135
:104BA00003229043490004300B42FBD00323984674
:104BB000C3009946B144CC4682466346DC68A445AE
:104BC00007D129E1002A00DB32E1E468A44500D1E5
:104BD00022E14246636893435A1B0F2AF2DD01200B
:104BE0008046611905436560A068E5680836C560C0
:104BF000A8604046F160B16010434860CE608E60AE
:104C00003800E25000F000FA2000083002E00C23E7
:104C100000203B6003B03CBC90469946A246AB46A0
:104C2000F0BD80213F238900402098466DE7DC6875
:104C30000230A34200D03BE732003469083294428C
:104C400000D087E701217368821091409942A5D96D
:104C50000323B46862689A439046AA4203D3531B65
:104C60000F2B00DD88E023004344614A0193614B30
:104C700093469A4612681B68EB18013200D139E15D
:104C80005D4A944663441B0B1B0300930099380054
:104C900000F0BCF903008146013300D1F6E0019B2E
:104CA000834200D9F0E051464968009B8C4651464A
:104CB00063444B6001991A00494500D14FE15B46BE
:104CC0001B68013300D154E14B4601995B1A9A18D5
:104CD00053465A6007234A461A40019200D113E115
:104CE00008214B4689469B1A99440099434B4944F5
:104CF0009B1A5B1A1B051B0D0091380019009B467F
:104D000000F084F9431C00D14FE14B46C01A030068
:104D10005B440093534652465B6801215B445360F9
:104D20004A464846B260009A0A434260B44200D103
:104D300023E142460F2A00D821E107200C3A8243A2
:104D400060680140052011436160A11848608860D7
:104D50000F2A00D934E14A464C4652685146C96A86
:104D6000994201D25146CB625146096B994200D318
:104D70008EE051460B638BE001222900134311435F
:104D8000651961603800B5606B6000F03DF9200086
:104D900008303FE74046D7E65A0A042A6ED9142A5B
:104DA00000D9C1E011005C325B31D20008235B42C4
:104DB0009C46B218944463469A68032398469445E7
:104DC00000D19AE0434651689943494502D9926817
:104DD0009445F7D1D3689C4673686146A260E16050
:104DE0008C60D460D5E6C046F0060020FF010000CC
:104DF000E8060020340C00200F100000081000000E
:104E0000142852D9542800D996E06E239846280BCE
:104E100080446F30C10078E608239B46073BDC44A2
:104E20009B46DA4443465246134200D0C5E64CE066
:104E30000122E318596838000A435A60E368A268FF
:104E4000D3609A6000F0E0F820000830E2E62B0022
:104E5000E808083324E6012360191D43656070618A
:104E60003061C26082601A004B460A4342603800DB
:104E7000E15000F0C9F820000830CBE69A09110093
:104E800039323831D20091E7B44260D0B4686268F8
:104E900003239A43531BAA4202D30F2B00DD6BE777
:104EA000380000F0B1F80020B4E65B239846804457
:104EB0005C30C10029E608235B429C46E1444B4636
:104EC0009B6801384B4500D097E043460342F2D13E
:104ED00073688B4373604900994200D9B8E6002992
:104EE00004D1B5E6042294464900E2440B42F9D0CD
:104EF00050465DE610330093C8E68910023B8B40B4
:104F000071680B43736068E7009B38004B441B05D6
:104F10005B421B0D19009B4600F078F8431C00D043
:104F2000F3E600239B46F5E6542A2AD81A0B110013
:104F30006F326E31D20039E7AA235B0098422AD83B
:104F4000DD3B9846E80B80447830C100DDE55346F0
:104F50005B68009A9C46534662445A60AFE6090576
:104F600000D0ACE6009AB468424401310A43626062
:104F7000F4E65B464A461A60ACE64C46EEE6416013
:104F80008EE7AA2149008A4224D8DA0B1100783230
:104F90007731D2000AE71A4B984224D87C239846EE
:104FA000A80C80447D30C100AFE5009A019B944677
:104FB0004A46083B63449B1A009300239B46A9E69C
:104FC00021003800083100F053FB5346B4685B6899
:104FD0006268C3E60A498A420BD89A0C11007D32F6
:104FE0007C31D200E2E6FE217E2389007F209846B4
:104FF0008BE5FE227E219200D8E673686BE7C046FF
:10500000540500007047C0467047C046002370B585
:10501000064C050008002360FCF79AFD431C00D0F5
:1050200070BD2368002BFBD02B60F9E7200F002018
:10503000F0B54746CE4680B51E00544B83B01D6880
:10504000040088461700002D02D0AB6B002B64D003
:10505000022F05D0012F00D995E0002E00DA92E052
:105060002100280000F07AF9216B002908D02300E4
:105070004033994202D0280000F0FAFA002323635B
:105080000023A36163600C22A35E1A0650D4404A39
:105090001340A381022F56D001AB6A46210028009D
:1050A00000F01CFCA3890343A381002E23D04346B8
:1050B000002B21D0AB6B002B2BD00C22A35E009ACF
:1050C000B24203D0802212011343A381012F02D1E7
:1050D00001221343A38142462260226108229BB22F
:1050E00066611A401DD0DB073AD500237642A360E3
:1050F000A661002017E0009E3000FFF737FA8046D7
:10510000002830D08022A3891343A381AB6B002BEE
:10511000D3D1280000F034FACFE7280000F030FAAD
:1051200096E70020A26003B00CBC90469946F0BD03
:105130002169280000F09CFA0C22A35E144A134057
:10514000A381022FA8D1002002221343A3810023B0
:10515000A360230043332360236101236361E2E7FB
:10516000A6600020DFE7009B9946B34206D01800F6
:10517000FFF7FCF94E4680460028C3D101200C22DF
:10518000A35E4042E0E701204042CCE7B8020020A5
:105190005CF3FFFF10B5830727D00378002B26D0E0
:1051A0000300032102E01A78002A1CD001330B42CD
:1051B000F9D119680F4A104C8A188A4322420FD13C
:1051C000043319680B4A8A188A43224208D10433EF
:1051D0001968084A8A188A432242F1D000E0013354
:1051E0001A78002AFBD1181A10BD0300E1E700204D
:1051F000FAE7C046FFFEFEFE80808080F0B5C6461E
:1052000000B50C23CA5E804693B20C0019074DD43A
:1052100080231B0113436268A381002A67DDA56A0E
:10522000002D3FD042464146166800229BB20A60DC
:10523000E169DA0460D4012300224046A847431CF8
:1052400069D0A389A56AE1695B0706D56368C01ABE
:10525000236B002B01D0E36BC01A002302004046F1
:10526000A847431C4AD143461A680C21635E002AB2
:105270005FD01D2A01D0162A69D1374A1340A38175
:1052800000236360236923604346216B1E6000296D
:1052900008D023004033994202D0404600F0E8F99C
:1052A00000232363002004BC9046F0BD2669002E35
:1052B000F8D022682660951B00229B0700D1626906
:1052C000A260002D04DCEDE736182D1A002DE9DD73
:1052D0002B003200E1694046676AB8470028F3DCDA
:1052E00040220120A38940421343A381DBE7E26B04
:1052F000002A00DD93E7D5E7206DA5E7A389164ACC
:1053000013400022626022691BB2A3812260DB0489
:10531000BAD52065B8E743461B68002B00D190E75B
:105320001D2B10D0162B0ED04022A3891343A3812E
:10533000B9E70949626022690B40A3812260DB045E
:10534000A2D52065A0E7434600201E60ABE74022BF
:105350001343A381A7E7C046FFF7FFFF70B5040022
:105360000D00002802D0836B002B09D00C22AB5E0D
:105370000020002B03D029002000FFF73FFF70BD65
:1053800000F0FEF8F2E7C04610B5011E04D0054B50
:105390001868FFF7E3FF10BD034B0449186800F0DD
:1053A00077FAF8E7B8020020C86C00105D530010CF
:1053B0000020704710B5024900F06AFA10BDC046DF
:1053C000BD5A0010F0B5D6464F464646304BC0B5E4
:1053D000C363B823002403229B00C45004334568F0
:1053E000C2500833C218043BC250060004232800F0
:1053F0006C662C606C60AC60EB602C616C61AC61C5
:10540000082200215C30FFF7CBF8224B224F9A464E
:105410002B62224BEF6299466B62214BED61AB62CE
:10542000B568984628001F4B6C662C606C60AC60B9
:10543000EB602C616C61AC61082200215C30FFF7ED
:10544000AFF853462B624B466B624346EF62AB624A
:10545000ED61F568144B2800EB606C662C606C60A5
:10546000AC602C616C61AC61082200215C30FFF7FC
:1054700097F853462B624B466B624346AB6201235F
:10548000EF62ED61B3631CBC90469946A246F0BD45
:10549000B5530010CD590010655A0010F95900108D
:1054A000395A001009000100120002000020704764
:1054B00070B568244A1E54430E0021007431FFF772
:1054C000DBFA051E09D000232200036046600C3081
:1054D000A86068320021FFF763F8280070BDC0465D
:1054E0001F4B70B51D680600AB6B002B2AD0B8238C
:1054F0009B009C4665446B68AC68013B03D51CE08F
:105500006834013B19D30C21625E002AF8D10025D2
:105510002000144B656625606560A560E360256129
:105520006561A561082200215C30FFF739F8256329
:1055300065636564A564200070BD2C68002C05D0EF
:105540002500D8E72800FFF73DFFD0E70421300011
:10555000FFF7AEFF041E2860F2D10C233360EAE7A8
:10556000C86C00100100FFFF10B5034B0349186819
:1055700000F08EF910BDC046C86C0010BD5A001076
:10558000836B10B5002B01D1FFF71CFF10BDC04687
:105590007047C0467047C0467047C0467047C04617
:1055A00010B5034B0349186800F050F910BDC04610
:1055B000B8020020B153001010B5034B034918681E
:1055C00000F044F910BDC046B8020020AD540010F0
:1055D000F8B50C000600FFF715FD204FBB685D68AD
:1055E00003239D431E4B2C1B9C466444240B1D4BE4
:1055F000013C24039C4207DD00213000FFF706FD3B
:10560000BB685B19984204D03000FFF7FDFC002016
:10561000F8BD61423000FFF7F9FC431C0DD00122B8
:10562000BB682D1B15435D600F4B30001A68141BBF
:105630001C60FFF7E9FC0120EAE700213000FFF7DA
:10564000E5FCBA68831A0F2BDEDD08490968401AA9
:105650000549086001210B435360D5E7F00600209F
:10566000EF0F0000FF0F0000380C0020E8060020BC
:10567000F0B5D6464F4646460500C0B50C1E5CD078
:10568000FFF7C0FC210008394F6801243B000322CA
:10569000A343C81846689643B146664EB268824234
:1056A00000D175E04A464260821894463C4229D1B6
:1056B0000F68C91B8A68DB19904662465768082242
:1056C00094462740B444BA46E04556D0CA6894464A
:1056D00042466746D7606246474697605246002A70
:1056E00013D101224B44CF18BC468468524F1A4351
:1056F000BC4200D17AE0C068E06084604A606246E3
:10570000136005E057682742EBD01C434C600360F0
:105710004A4A934216D8DB08FF3A9810FF3A824073
:105720007068DB00024372609E19B368CE608B60C4
:10573000B160D9602800FFF767FC1CBC9046994611
:10574000A246F0BD5C0A042C3AD89C0920003934EA
:105750003830E4003419083CA268032794423ED054
:105760005068B843984202D992689442F8D1D468FC
:10577000CC608A60A160D160DCE7002F55D1C2689F
:105780004B4480681C43C26090604C60CB50D1E7B2
:105790004B443C4206D10A68891A88689B18CA683B
:1057A000C260906001221A434A60254AB1601268C3
:1057B0009A42BFD8234B28001968FFF709FFB9E7C1
:1057C000142C07D9542C19D81C0B20006F346E30C0
:1057D000E400BFE720005C345B30E400BAE701235B
:1057E00080108340706803437360C1E7E160A1608B
:1057F0004A606246CC608C6013609BE7AA20400040
:10580000844205D8DC0B200078347730E400A1E72F
:105810000D48844205D89C0C20007D347C30E40087
:1058200098E7FE247E20A40094E71C434C600360AC
:1058300080E7C046F0060020F8060020FF010000C7
:10584000EC060020340C002054050000B823F0B50D
:10585000C6469B00C71800B588460026002F13D007
:105860007B68BC685D1E0CD4A389012B06D90E226F
:10587000A35E013302D02000C04706436834013DD7
:10588000F2D23F68002FEBD1300004BC9046F0BD4F
:10589000F8B54746CE4680B5B8278046BF00474496
:1058A00089460026002F14D07B68BC685D1E0DD48D
:1058B000A389012B07D90E22A35E013303D0210057
:1058C0004046C84706436834013DF1D23F68002F87
:1058D000EAD130000CBC90469946F8BD70B50C007A
:1058E0001E000E23C95E96B01500002915DB6A461E
:1058F00000F03AF9002810DBF022019B120213405D
:105900000D4A8020944663445A42534133608023B9
:10591000DB002B60000116B070BD00233360A3894B
:105920001B0603D5402300202B60F4E78023DB0017
:105930002B600020EFE7C04600E0FFFF70B58B89C9
:1059400082B006000C009B0707D523004333236079
:1059500023610123636102B070BD01AB6A46FFF7AA
:10596000BDFF009905003000FFF786F8002810D031
:105970008022154BF363A38920601343009A1BB266
:105980006261019AA3812061002A0CD12B43A3817B
:10599000E1E70C22A35E9A05DDD4032293430222A1
:1059A0001343A381D1E70E23E15E300000F0F0F84D
:1059B000002802D10C22A35EE8E70322A3899343C7
:1059C000012213431BB2E1E7B553001070B50C0080
:1059D0000E25495F00F002F9002803DB236D1B1838
:1059E000236570BDA389024A1340A381F9E7C0462D
:1059F000FFEFFFFF00207047F8B516001F000C22D4
:105A00008B5E0C0005000E22895EDA0508D4094A77
:105A100028001340A38132003B0000F029F8F8BDB4
:105A20000022022300F0C6F80C22A35E0E22A15E23
:105A3000EDE7C046FFEFFFFF70B50C000E25495F94
:105A400000F0B8F8431C06D08023A2895B01134301
:105A5000A381206570BDA389014A1340A381F9E7A2
:105A6000FFEFFFFF10B50E23C95E00F015F810BD63
:105A700070B50500080011000022064C22601A00D3
:105A8000FEF7D2FE431C00D070BD2368002BFBD074
:105A90002B60F9E7200F0020002370B5064C0500AD
:105AA0000800236000F0AEF8431C00D070BD2368EE
:105AB000002BFBD02B60F9E7200F002070B505000C
:105AC0000C1E08D0002802D0836B002B31D00C2292
:105AD000A35E002B02D10026300070BD21002800FB
